:100000000C9494170C94BE170C94BE170C94BE1746
:100010000C94BE170C94BE170C94BE170C94BE170C
:100020000C94BE170C94BE170C94BE170C94BE17FC
:100030000C94BE170C9497480C94BE170C94BE17E2
:100040000C94BE170C94A05C0C94917D0C94BE177C
:100050000C9434390C94BE170C94BE170C94BE1734
:100060000C94BE170C94BE170C94BE170C94BE17BC
:100070000C94BE170C94BE170C94BE170C94BE17AC
:100080000C94BE170C94BE170C94BE17F451F75184
:10009000EA51EE510E520E52FB51FF5105520952D8
:1000A000007D057D0A7D147D427D427D1E7D267D7D
:1000B0002E7D387D4AB323B25AB286B35AB25AB2B1
:1000C0005AB25AB25AB25AB25AB25AB25AB25AB2D0
:1000D0005AB25AB25AB25AB25AB25AB25AB25AB2C0
:1000E0005AB25AB25AB25AB25AB25AB25AB25AB2B0
:1000F00080B35AB25AB25AB25AB25AB25AB25AB279
:100100005AB259B35AB25AB25AB25AB25AB25AB28F
:100110005AB25AB25AB25AB29DB357B24E414E4930
:100120004E495459494E46CDCCCC3D0AD7233C17B5
:10013000B7D13877CC2B329595E6241FB14F0A0002
:100140000020410000C84200401C4620BCBE4CCAF2
:100150001B0E5AAEC59D7400407A10F35A00A0726F
:100160004E18090010A5D4E80000E87648170000F2
:10017000E40B54020000CA9A3B000000E1F50500C0
:100180000080969800000040420F000000A0860109
:10019000000000102700000000E8030000000064D9
:1001A00000000000000A0000000000010000000044
:1001B000002C76D888DC674F0823DFC1DFAE59E119
:1001C000B1B796E5E3E453C63AE651997696E8E688
:1001D000C28426EB898C9B62ED407C6FFCEFBC9C5B
:1001E0009F40F2BAA56FA5F490055A2AF75C936B6D
:1001F0006CF9676DC11BFCE0E40D47FEF520E6B528
:1002000000D0ED902E0300943577050080841E0801
:100210000000204E0A000000C80C333333330F981F
:100220006E12831141EF8D2114893BE65516CFFEE6
:10023000E6DB18D1844B381BF77C1D901DA4BBE472
:1002400024203284725E228100C9F124ECA1E53DB4
:1002500027434F4D4D554E49434154494F4E00445D
:10026000525952554E004552524F525300494E4634
:100270004F004543484F0020636F6C6420657874DD
:10028000727573696F6E2070726576656E746564E1
:100290000A00536C6565702E2E2E00456E646572E3
:1002A0002D33204D617820506C7573207265616428
:1002B000792E00526573756D696E67207072696E74
:1002C0007400436C69636B20746F20726573756D85
:1002D000652E2E2E004E6F206D6F76652E00456EBA
:1002E000642066696C65206C6973740A00426567F6
:1002F000696E2066696C65206C6973740A005446E7
:10030000207072696E74696E67206279746520006E
:100310004E6F74205446207072696E74696E670A5D
:100320000046696C652064656C657465643A0044D8
:10033000656C6574696F6E206661696C65642C20FC
:1003400046696C653A20006F70656E206661696C65
:1003500065642C2046696C653A2000256973002588
:10036000696D20256973002569682025696D202540
:10037000697300256964202569682025696D202539
:10038000697300256979202569642025696820251D
:10039000696D20256973005072696E742074696DEF
:1003A000653A200050726F7465637465642050690B
:1003B0006E0A004578747275646572202573007248
:1003C000026D0266025F0251026F6666004445429A
:1003D00055473A004B494C4C45442E20004D313195
:1003E000332053006F6B0048656174696E67206449
:1003F0006F6E652E0020573A0045787472756465FB
:10040000722025730042656420646F6E652E0020A3
:10041000573A004265642048656174696E672E0032
:10042000456E6465722D33204D617820506C757374
:10043000204F66662E004361703A454D4552474550
:100440004E43595F5041525345523A300A0043617E
:10045000703A434153455F4C494748545F425249C3
:100460004748544E4553533A300A004361703A545A
:100470004F47474C455F4C49474854533A300A0070
:100480004361703A534F4654574152455F504F575E
:1004900045523A300A004361703A4C4556454C4942
:1004A0004E475F444154413A300A004361703A5A22
:1004B0005F50524F42453A300A004361703A41550D
:1004C000544F4C4556454C3A300A004361703A50FF
:1004D00052494E545F4A4F423A310A004361703AE2
:1004E00050524F47524553533A300A004361703AD5
:1004F0004155544F5245504F52545F54454D503A18
:10050000310A004361703A454550524F4D3A310A25
:10051000004649524D574152455F4E414D453A4D77
:1005200061726C696E2046595345544320534F55B0
:100530005243455F434F44455F55524C3A6874748B
:1005400070733A2F2F6769746875622E636F6D2F11
:100550004D61726C696E4669726D776172652F4D7F
:1005600061726C696E2050524F544F434F4C5F562E
:10057000455253494F4E3A312E30204D4143484960
:100580004E455F545950453A456E6465722D33208F
:100590004D617820506C7573204558545255444530
:1005A000525F434F554E543A3120555549443A63B2
:1005B000656465326132662D343161322D343734F1
:1005C000382D396231322D63353563363266333634
:1005D0003766660A002F2F20007A5F6D696E3A2019
:1005E00000795F6D696E3A2000785F6D696E3A2020
:1005F000005265706F7274696E6720656E64737403
:100600006F70207374617475730A004D3134352036
:10061000533C696E6465783E206F7574206F662068
:1006200072616E67652028302D31290A0053657488
:1006300074696E672054726176656C2041636365EE
:100640006C65726174696F6E3A20005365747469E9
:100650006E67205265747261637420416363656CD8
:1006600065726174696F6E3A200053657474696EC7
:1006700067205072696E7420416363656C657261B6
:1006800074696F6E3A200053657474696E67205008
:1006900072696E7420616E642054726176656C209C
:1006A000416363656C65726174696F6E3A20002006
:1006B0005A00205900580020204D61783A2000202F
:1006C0005A00205900580020204D696E3A20004FF2
:1006D0006E20004F666600536F667420656E64730B
:1006E000746F70733A200000010F150E12FF161779
:1006F0000E13FF03021A14FFFFFF0C04FFFFFF019C
:10070000000EFFFF0C190DFF18FFFFFFFFFFFF207A
:10071000643A0020693A0020703A0043290A0061D7
:10072000626C656420286D696E2074656D702000B0
:10073000436F6C64206578747275646573206172B0
:100740006520004E6F2063617365206C6967687473
:100750000A00416374697665204578747275646532
:10076000723A2000556E6B6E6F776E20636F6D6D01
:10077000616E643A2022004B494C4C45442E2000C7
:1007800053544F505045442E20005072696E74658A
:10079000722073746F707065642064756520746F67
:1007A000206572726F72732E2046697820746865B6
:1007B000206572726F7220616E6420757365204DC2
:1007C00039393920746F20726573746172742E2008
:1007D0002854656D70657261747572652069732047
:1007E00072657365742E2053657420697420616688
:1007F0007465722072657374617274696E67290A18
:10080000004E6F204C696E65204E756D62657220DA
:100810007769746820636865636B73756D2C204C11
:10082000617374204C696E653A20004E6F204368F6
:1008300065636B73756D2077697468206C696E658C
:10084000206E756D6265722C204C617374204C694A
:100850006E653A2000636865636B73756D206D6922
:10086000736D617463682C204C617374204C696EE5
:10087000653A20004C696E65204E756D6265722088
:100880006973206E6F74204C617374204C696E65BF
:10089000204E756D6265722B312C204C6173742073
:1008A0004C696E653A20004D313130004D333100D6
:1008B0004D383420582059205A2045005446207283
:1008C000656164206572726F720A00446F6E652004
:1008D0007072696E74696E672066696C650A0020C3
:1008E000496E76616C6964206578747275646572AE
:1008F0002000202F002042403A0020403A00205A99
:100900003A0020593A0020436F756E7420583A001F
:1009100020453A00205A3A0020593A00583A00231C
:10092000646566696E65202044454641554C545FB8
:100930004B64200023646566696E6520204445464B
:1009400041554C545F4B69200023646566696E65B0
:10095000202044454641554C545F4B70200050497F
:1009600044204175746F74756E652066696E697395
:10097000686564212050757420746865206C61730B
:1009800074204B702C204B6920616E64204B6420D6
:10099000636F6E7374616E74732066726F6D206224
:1009A000656C6F7720696E746F20436F6E66696740
:1009B00075726174696F6E2E680A00504944204157
:1009C00075746F74756E65206661696C656421204D
:1009D00074696D656F75740A0050494420417574DF
:1009E0006F74756E65206661696C6564212054655D
:1009F0006D706572617475726520746F6F206869BF
:100A000067680A00204B643A2000204B693A2000B6
:100A1000204B703A20000A20436C61737369632095
:100A2000504944200A002054753A2000204B753A62
:100A30002000206D61783A2000206D696E3A200018
:100A400020643A200020626961733A20005772697D
:100A500074696E6720746F2066696C653A20006F58
:100A600070656E206661696C65642C2046696C65F2
:100A70003A20006F70656E206661696C65642C2099
:100A800046696C653A200046696C652073656C6543
:100A9000637465640A002053697A653A20004669E8
:100AA0006C65206F70656E65643A20006F70656ECE
:100AB000206661696C65642C2046696C653A20008B
:100AC0002066696C653A20004E6F77200022207006
:100AD0006F73002220706172656E743A2200535564
:100AE00042524F5554494E452043414C4C2074616D
:100AF000726765743A22004B494C4C45442E2000E5
:100B0000747279696E6720746F2063616C6C2073F6
:100B100075622D67636F64652066696C6573207705
:100B200069746820746F6F206D616E79206C6576D2
:100B3000656C732E204D4158206C6576656C20697C
:100B4000733A0043616E6E6F74206F70656E207330
:100B50007562646972200054462063617264206F7C
:100B60006B0A006F70656E526F6F74206661696CFE
:100B700065640A00766F6C756D652E696E69742008
:100B80006661696C65640A004572726F723A00545E
:100B90004620696E6974206661696C0A006175742B
:100BA0006F25692E67004D3234004D323320257396
:100BB0000000060900FE000000000001090008FE18
:100BC000000005080806000040F0C88888987810E2
:100BD000050808060000C0F88888888888F8050598
:100BE000050600012030F830200508080600002026
:100BF00070F820202020E00509090600FF2070A8D9
:100C0000A8B8888870200509090600FFE080C0B0F8
:100C1000A8283028280509090600FFF8A888888830
:100C20008888A8F8050A0A0600FE2050505050880F
:100C3000A8A8887003030306000340A04025753A66
:100C40002530327500253032753A25303275002551
:100C5000756420253032753A25303275005A0059B6
:100C60000058000920000000000000000000000003
:100C70000000003FFFF0F8020000600000000000EC
:100C800000000038007048020000900000000000E2
:100C9000000000338730438E6680100000000000A3
:100CA0000000002787907252933E60000000000011
:100CB0000000002F87D04252F20010000000000018
:100CC0000000002F87D04A528200900000000000F0
:100CD0000000002F03D0FA4E7700601FE0000008EC
:100CE00020800020301000000000003FF0000004D1
:100CF00010400020781000000000003FF0000004C9
:100D000010400020781000000000003FF0000008B4
:100D100020800020301000000000001FE0000010C4
:100D20004100002F03D000000000001FE000002061
:100D30008200002F87D000000000003FF00000205C
:100D40008200002F87D000000000003FF00000105C
:100D500041000027879000000000003FF0000008DD
:100D600020800033873000000000000FC00000002A
:100D7000000000380070000000000007800000FF45
:100D8000FFC0003FFFF0000000000003000000FF74
:100D9000FFC0000000000000000000000000000094
:100DA0000000003FFFF0F8020000600000000000BB
:100DB00000000038007048020000900000000000B1
:100DC000000000338730438E668010000000000072
:100DD0000000002787907252933E600000000000E0
:100DE0000000002F87D04252F200100000000000E7
:100DF0000000002F87D04A528200900000000000BF
:100E00000000002F03D0FA4E7700601FE0000008BA
:100E100020800020301000000000003FF00000049F
:100E200010400020781000000000003FF000000497
:100E300010400020781000000000003FF000000883
:100E400020800020301000000000001FE000001093
:100E50004100002F03D000000000001FE000002030
:100E60008200002F87D000000000003FF00000202B
:100E70008200002F87D000000000003FF00000102B
:100E800041000027879000000000003FF0000008AC
:100E900020800033873000000000000FC0000000F9
:100EA000000000380070000000000007800000FF14
:100EB000FFC0003FFFF0000000000003000000FF43
:100EC000FFC00000000024F4D43050C38E20C2A222
:100ED0004017828B7011127A910D816CD90AA8612A
:100EE000E108C7586607615143061E4B5D05C145C1
:100EF000A7041A411104093D9803713931034036A2
:100F0000DB0265339102D4305402802E1D02632C23
:100F1000EE01752AC501B028A001102781018F2597
:100F200064012B244B01E0223401AC211F018D20F0
:100F30000D01801FFC00841EED00971DDF00B81C12
:100F4000D200E61BC600201BBC00641AB200B21916
:100F5000A8000A19A0006A189900D117910040173B
:100F60008B00B516840031167E00B31579003A1552
:100F70007300C7146F0058146A00EE1366008813DC
:100F8000630025135E00C7125B006C125700151238
:100F90005400C111510070114F0021114B00D610A7
:100FA00049008D1047004610440002104200C00F57
:100FB0004000800F3E00420F3C00060F3B00CB0E6E
:100FC0003800930E37005C0E3500270E3400F30D09
:100FD0003200C10D3100900D3000600D2E00320D39
:100FE0002D00050D2C00D90C2B00AE0C2900850C12
:100FF00029005C0C2700350C27000E0C2600E80B9E
:101000002400C40B2400A00B23007D0B23005A0BEB
:101010002100390B2100180B2000F80A1F00D90A03
:101020001E00BB0A1E009D0A1D00800A1D00630AE7
:101030001C00470A1B002C0A1B00110A1A00F709A2
:101040001A00DD091900C4091900AB091900920939
:1010500017007B091800630917004C0916003609B0
:101060001600200916000A091500F5081500E00809
:101070001400CC081400B8081400A4081400900848
:1010800013007D0812006B08130058081200460870
:101090001200340811002308110012081100010881
:1010A0001100F0071000E0071000D0071000C00783
:1010B0001000B0070F00A107100091070E00830772
:1010C0000F0074070F0065070E0057070E00490751
:1010D0000E003B070D002E070E0020070D00130722
:1010E0000D0006070D00F9060C00ED060D00E006E8
:1010F0000C00D4060C00C8060C00BC060C00B006A0
:101100000C00A4060B0099060C008D060B0082064D
:101110000B0077060B006C060B0061060A005706F1
:101120000B004C060A0042060A0038060A002E068A
:101130000A0024060A001A060A001006090007061B
:101140000A00FD050900F4050900EB050900E205A8
:101150000900D9050900D0050900C7050900BE0529
:101160000900B5050800AD050800A50509009C05A6
:101170000800940508008C050800840508007C051B
:101180000800740508006C050700650508005D058A
:101190000700560508004E050700470507004005F3
:1011A000080038050700310507002A050700230558
:1011B00007001C050600160507000F0507000805B7
:1011C000060002050700FB040600F5040700EE0414
:1011D0000600E8040600E2040700DB040600D5046C
:1011E0000600CF040600C9040600C3040600BD04BF
:1011F0000600B7040600B1040500AC040600A6040E
:101200000600A00405009B04060095040500900458
:1012100006008A04050085040500800406007A049F
:10122000050075040500700405006B0405006604E4
:101230000500610405005C04050057040500520424
:1012400005004D04050048040500430405003E0464
:1012500004003A04050035040500300404002C04A1
:10126000050027040400230405001E0404001A04DA
:10127000040016040500110404000D040400090410
:1012800005000404040000040400FC030400F80347
:101290000400F4030400F0030400EC030400E8037A
:1012A0000400E4030400E0030400DC030400D803AA
:1012B0000400D4030400D0030400CC030400C803DA
:1012C0000300C503030024F404D9201BC40C5C0EE6
:1012D0009804C4095F0265077101F405F900FB0475
:1012E000B30048048700C103690058035500030395
:1012F0004500BE023A008402310053022A0029024E
:10130000250004022000E4011C00C8011900AF01FF
:10131000170098011400840113007101100061018D
:10132000100051010E0043010D0036010B002B018E
:101330000B0020010B00150109000C01090003013D
:101340000800FB000800F3000800EB000700E400C1
:101350000600DE000600D8000600D2000600CC0021
:101360000500C7000500C2000500BD000400B9006B
:101370000400B5000400B1000400AD000400A900A1
:101380000400A5000300A20003009F0004009B00CE
:1013900003009800030095000200930003009000F2
:1013A00003008D0002008B0003008800020086000D
:1013B000020084000300810002007F0002007D0023
:1013C00002007B0002007900020077000100760035
:1013D00002007400020072000100710002006F0040
:1013E00002006D0001006C0002006A00010069004B
:1013F0000200670001006600010065000100640052
:1014000002006200010061000100600001005F0055
:1014100002005D0001005C0001005B0001005A0059
:10142000010059000100580001005700010056005A
:10143000010055000100540001005300000053005A
:1014400001005200010051000100500001004F0056
:1014500001004E0000004E0001004D0001004C0054
:1014600001004B0000004B0001004A000100490050
:10147000010048000000480001004700010046004C
:101480000000460001004500000045000100440046
:101490000100430000004300010042000000420040
:1014A00001004100000041000100400001003F0038
:1014B00000003F0001003E0000003E0001003D0032
:1014C00000003D0001003C0000003C0000003C002A
:1014D00001003B0000003B0001003A0000003A0020
:1014E0000100390000003900010038000000380018
:1014F000000038000100370000003700010036000E
:101500000000360000003600010035000000350004
:1015100000003500010034000000340000003400F9
:1015200001003300000033000000330001003200EE
:1015300000003200000032000100310000003100E4
:1015400000003100010030000000300000003000D9
:1015500001002F0000002F0000002F0000002F00CE
:1015600001002E0000002E0000002E0001002D00C2
:1015700000002D0000002D0000002D0001002C00B7
:1015800000002C0000002C0000002C0001002B00AB
:1015900000002B0000002B0000002B0001002A009F
:1015A00000002A0000002A0000002A000100290093
:1015B0000000290000002900000029000000290087
:1015C000010028000000280000002800000028007A
:1015D000000028000100270000002700000027006D
:1015E0000000270000002700010026000000260060
:1015F0000000260000002600000026000100250053
:101600000000250000002500000025000000250046
:101610000000250001002400000024000000240038
:10162000000024000000240001002300000023002B
:10163000000023000000230000002300000023001E
:101640000000230001002200000022000000220010
:101650000000220000002200000022000100210002
:1016600000002100000021000000210000002100F6
:1016700000002100000021000100200000002000E7
:1016800000002000000020000000200000002000DA
:10169000000020000000200001001F0000001F00CB
:1016A00000001F0000001F0000001F0000001F00BE
:1016B00000001F0001001E0000001E0000001E00B0
:1016C00000001E0000004D383420582059205A20B8
:1016D000450000002100240027002A00000022000D
:1016E000250028002B0000002000230026002900F0
:1016F00002020202020202020404040404040404BA
:1017000003030303030303030101010101010101B9
:1017100001020408102040800102040810204080CB
:1017200001020408102040808040201008040201BB
:10173000000000010200090A00000000040308077D
:101740000000000000000000000000000000000099
:101750002020506C616E6E657242756666657242DD
:10176000797465733A20002046726565204D656D79
:101770006F72793A2000436F6D70696C65643A202E
:101780004E6F7620313720323032300A00207C20F4
:10179000417574686F723A2028456E6465722D3306
:1017A000204D617820506C7573290A003230313930
:1017B0002D30342D313200204C617374205570640B
:1017C000617465643A2000312E312E36424C5F56EA
:1017D000330A004D61726C696E0020536F66747736
:1017E0006172652052657365740A002057617463E5
:1017F00068646F672052657365740A002042726FD7
:10180000776E206F75742052657365740A002045E9
:10181000787465726E616C2052657365740A00504D
:101820006F77657255700A0073746172740A00658F
:1018300072726F722077726974696E6720746F209C
:1018400066696C650A00456E6473746F7073202559
:101850006320256320256320256300205A3A002059
:10186000593A0020583A00656E6473746F707320A3
:101870006869743A2000446F6E6520736176696E02
:10188000672066696C652E0A004D32390056652D59
:101890006A65726B0056652D6A65726B0056652D20
:1018A0006A65726B00567A2D6A65726B00567A2DE6
:1018B0006A65726B0056792D6A65726B0056792DD8
:1018C0006A65726B0056792D6A65726B0056782DC9
:1018D0006A65726B0056782D6A65726B0056782DBA
:1018E0006A65726B004D6F74696F6E004573746545
:1018F00070732F6D6D004573746570732F6D6D007F
:101900005A73746570732F6D6D005A7374657073BC
:101910002F6D6D005973746570732F6D6D00597361
:10192000746570732F6D6D005873746570732F6DCF
:101930006D005873746570732F6D6D004D6F746911
:101940006F6E0053746570732F6D6D004A65726B16
:1019500000416363656C65726174696F6E00566502
:101960006C6F6369747900436F6E74726F6C0046BC
:10197000696C2E204469612E0046696C2E204469F2
:10198000612E004F6666004F6E20004520696E2074
:101990006D6D3300436F6E74726F6C0043616E6ED9
:1019A0006F7420656E746572207375626469723A33
:1019B0002000022E2E000152656672657368004D8C
:1019C00061696E006265640A002C20737973746526
:1019D0006D2073746F707065642120486561746553
:1019E000725F49443A200048656174696E672066F9
:1019F00061696C65640048656174696E6720666141
:101A0000696C65640048656174696E672066616928
:101A10006C65640048656174696E67206661696C15
:101A200065640070012C0190012701B0012201C002
:101A3000011D01F00118011002130130020E0160B6
:101A400002090190020401C002FF000003FA0040F5
:101A500003F5008003F000D003EB002004E60070E3
:101A600004E100E004DC004005D700C005D20040DE
:101A700006CD00D006C8008007C3003008BE00F0C5
:101A800008B900C009B400B00AAF00B00BAA00D07A
:101A90000CA500000EA000500F9B00C01096005037
:101AA00012910000148C00C0158700B0178200B09E
:101AB000197D00D01B7800001E730040206E00903E
:101AC000226900F024640040275F0090295A00E05A
:101AD0002B5500102E500020304B0010324600E0F5
:101AE00033410090353C001037370070383200A089
:101AF000392D00B03A2800A03B2300603C1E0010A6
:101B00003D1900903D1400103E0F00703E0A00C0C9
:101B10003E0500003F0000403FFBFF803FF6FFC056
:101B20003FF1FF544845524D414C2052554E4157CC
:101B3000415900546865726D616C2052756E617711
:101B40006179004572723A204D494E54454D5020FE
:101B5000424544004572723A204D494E54454D501D
:101B6000004D494E54454D50207472696767657247
:101B70006564004572723A204D415854454D5020DD
:101B8000424544004572723A204D415854454D50EB
:101B9000004D415854454D50207472696767657215
:101BA0006564004D6F76652058004D6F766520594D
:101BB000004D6F7665205A004578747275646572C1
:101BC000004D6F766520302E316D6D004D6F76655E
:101BD00020316D6D004D6F76652031306D6D004D9B
:101BE0006F766520617869730045787472756465F5
:101BF00072004D6F7665205A004D6F766520590052
:101C00004D6F766520580045787472756465720072
:101C10004D6F7665205A004D6F76652059004D6FE7
:101C2000766520580050726570617265004C6F6176
:101C3000642073657474696E677300496E697469B2
:101C4000616C697A6520454550524F4D0053746F61
:101C500072652073657474696E67730046696C61A0
:101C60006D656E74004D6F74696F6E0054656D70B4
:101C700065726174757265004D61696E00507265C0
:101C8000686561742041425320636F6E6600507234
:101C9000656865617420504C4120636F6E66004634
:101CA000616E2073706565640046616E20737065B7
:101CB00065640046616E207370656564004265640A
:101CC0000042656400426564004E6F7A7A6C65007C
:101CD0004E6F7A7A6C65004E6F7A7A6C6500436F4E
:101CE0006E74726F6C0053746F72652073657474D8
:101CF000696E677300426564004265640042656412
:101D0000004E6F7A7A6C65004E6F7A7A6C65004E81
:101D10006F7A7A6C650046616E2073706565640049
:101D200046616E2073706565640046616E20737055
:101D30006565640054656D706572617475726500E7
:101D4000F4010000F401000064000000E80300005A
:101D500000009643000096430000A0400000C841E8
:101D60000000A0420000A0420000C8430000BA42A8
:101D700020440020490020204D33303120500050B5
:101D800049442073657474696E67733A0A0020468B
:101D90000020420020480020204D313435205300DF
:101DA0004D6174657269616C20686561747570203D
:101DB000706172616D65746572733A0A0020450046
:101DC000205A0020590020580020420020540020B2
:101DD000204D323035205300416476616E63656476
:101DE0003A20533C6D696E5F666565647261746527
:101DF0003E20543C6D696E5F74726176656C5F66FF
:101E0000656564726174653E20423C6D696E5F7306
:101E100065676D656E745F74696D655F6D733E2097
:101E2000583C6D61785F78795F6A65726B3E205AC5
:101E30003C6D61785F7A5F6A65726B3E20453C6DF0
:101E400061785F655F6A65726B3E0A00205400200E
:101E5000520020204D323034205000416363656CC5
:101E600065726174696F6E2028756E6974732F7363
:101E700032293A20503C7072696E745F6163636509
:101E80006C3E20523C726574726163745F6163637F
:101E9000656C3E20543C74726176656C5F6163636F
:101EA000656C3E0A00204500205A00205900202081
:101EB0004D3230312058004D6178696D756D20418B
:101EC0006363656C65726174696F6E2028756E69F5
:101ED00074732F7332293A0A00204500205A0020DB
:101EE000590020204D3230332058004D6178696D03
:101EF000756D206665656472617465732028756E02
:101F00006974732F73293A0A00204500205A002073
:101F1000590020204D3932205800537465707320C9
:101F200070657220756E69743A0A0020204D323057
:101F3000302044300A0020204D3230302044002030
:101F400044697361626C65640A0046696C616D6521
:101F50006E742073657474696E67733A0020204D47
:101F60003134392043203B20556E69747320696EEB
:101F70002043656C736975730A0020204732312055
:101F80002020203B20556E69747320696E206D6D92
:101F90000A007C3C3E5E2B3D3F2F5B5D3B2C2A22A2
:101FA0005C00506C656173652072657365740050E8
:101FB00052494E5445522048414C544544005072B9
:101FC000696E7465722068616C7465642E206B693B
:101FD0006C6C28292063616C6C6564210A0062695D
:101FE0006E004D31313720494E56414C4944204412
:101FF0004154412E004D313137205072696E746961
:102000006E672E2E2E004730205A25730047323837
:10201000205830205930004730205A257300473966
:1020200032205A2573204525730062696E00000036
:102030000000000000000000000000004842000016
:10204000484200008040000000005761726E696ED7
:10205000673A20486F6D696E672042756D70204445
:10206000697669736F72203C20310A000202040015
:1020700000A0400000A040000000400000C8430055
:1020800000C84300006B43FFFFFF00060900FE0786
:102090000192032120FFFF08FF07FF000000060058
:1020A0000001070706020080808080800080030214
:1020B00002060105A0A00507070600005050F850D1
:1020C000F850500507070600002078A07028F0207F
:1020D000050707060000C0C810204098180507072C
:1020E0000600006090A040A8906802030306010467
:1020F000C040800307070601002040808080402008
:1021000003070706010080402020204080050505C8
:1021100006000120A870A820050505060001202062
:10212000F820200203030602FFC0408005010106DB
:102130000003F8020202060200C0C0050505060001
:102140000108102040800507070600007088888875
:1021500088887003070706010040C040404040E007
:10216000050707060000708808708080F8050707DB
:10217000060000F81020100808F005070706000008
:1021800010305090F81010050707060000F880F096
:1021900008088870050707060000708080F08888AE
:1021A00070050707060000F808102020202005070A
:1021B0000706000070888870888870050707060089
:1021C0000070888878080870020505060200C0C003
:1021D00000C0C00206060602FFC0C000C040800466
:1021E000070706000010204080402010050303066A
:1021F0000002F800F80407070601008040201020C4
:1022000040800507070600007088081020002005A0
:10221000070706000070880868A8A8700507070669
:102220000000708888F8888888050707060000F095
:102230008888F08888F0050707060000708880808D
:10224000808870050707060000F08888888888F075
:10225000050707060000F88080F08080F805070772
:10226000060000F88080F0808080050707060000E7
:10227000708880B8888870050707060000888888FD
:10228000F8888888010707060200808080808080A7
:102290008005070706000038101010109060050731
:1022A000070600008890A0C0A090880507070600D8
:1022B00000808080808080F805070706000088D8AD
:1022C000A8888888880507070600008888C8A89815
:1022D0008888050707060000708888888888700548
:1022E0000707060000F08888F08080800507070651
:1022F000000070888888A89068050707060000F02D
:102300008888F0A090880507070600007880807014
:102310000808F0050707060000F8202020202020EC
:1023200005070706000088888888888870050707E1
:102330000600008888888888502005070706000066
:102340008888888888A85005070706000088885074
:1023500020508888050707060000888888502020BC
:1023600020050707060000F80810204080F8030742
:1023700007060100E08080808080E00505050600FA
:10238000018040201008030707060100E0202020FC
:102390002020E00503030600042050880501010603
:1023A0000000F8020202060205804005050506004D
:1023B0000070087888780507070600008080B0C89C
:1023C0008888F00505050600007080808870050784
:1023D0000706000008086898888878050505060043
:1023E000007088F880700507070600003048E0405C
:1023F0004040400506060600FF7088887808700592
:1024000007070600008080B0C88888880107070693
:102410000200800080808080800308080601FF2081
:102420000020202020A040040707060000808090A4
:10243000A0C0A090030707060100C04040404040F4
:10244000E0050505060000D0A8A8A8A80505050612
:102450000000B0C8888888050505060000708888D7
:1024600088700506060600FFF08888F08080050663
:10247000060600FF7888887808080505050600002C
:10248000B0C880808005050506000070807008F0E7
:102490000407070600004040E040404030050505C5
:1024A0000600008888889868050505060000888869
:1024B0008850200505050600008888A8A850050555
:1024C0000506000088502050880506060600FF8893
:1024D0008888780870050505060000F8102040F887
:1024E0000307070601002040408040402001070705
:1024F000060200808080808080800307070601003C
:1025000080404020404080050202060002689000A2
:1025100000000600000000000600000000000600A9
:10252000000000000600000000000600000000009F
:102530000600000000000600000000000600000089
:102540000000060000000000060000000000060079
:10255000000000000600000000000600000000006F
:102560000600000000000600000000000600000059
:102570000000060000000000060000000000060049
:10258000000000000600000000000600000000003F
:102590000600000000000600000000000600000029
:1025A0000000060000000000060000000000060019
:1025B000000000000600000000000600000000000F
:1025C00006000000000006000000000006000000F9
:1025D00000000600000000000600000107070602D8
:1025E0000080008080808080050707060000207042
:1025F000A8A0A87020050707060000304040E04072
:1026000050A805050506000088705070880507076A
:10261000060000885020F820F82001070706020075
:1026200080808000808080050808060000304820F7
:102630005050209060030101060107A0050707061E
:102640000000F888B8B8B888F805070706000170D8
:102650000878887800F80505050600012850A05084
:1026600028050303060001F8080802020206020614
:102670004080050707060000F888A88898A8F80594
:102680000101060006F8040404060003609090604F
:102690000507070600002020F8202000F8040505A3
:1026A00006000360902040F0030505060003E020CB
:1026B000E020E0020202060206408005080806004B
:1026C000FF8888888898E8808005070706000078DA
:1026D000989878181818020202060202C0C0020276
:1026E000020602FF408003050506000340C040408B
:1026F000E0050707060001708888887000F8050566
:1027000005060001A0502850A00507070600008814
:1027100090A858B808080507070600008890B84830
:10272000982038050808060000C040C048D838087E
:102730000805070706000020002040808870050873
:10274000080600004020007088F888880508080600
:1027500000001020007088F888880508080600002E
:102760002050007088F888880508080600006890E6
:10277000007088F8888805080806000050007088F6
:1027800088F888880508080600002050207088F81E
:1027900088880507070600003860A0B8E0A0B805E3
:1027A00008080600FF70888080887020600508088F
:1027B000060000402000F880F080F80508080600B8
:1027C00000081000F880F080F805080806000020D6
:1027D0005000F880F080F80507070600005000F868
:1027E00080F080F8030808060100804000E04040C7
:1027F00040E0030808060100204000E0404040E0BF
:1028000003080806010040A000E0404040E0030744
:1028100007060100A000E0404040E0050707060071
:1028200000704848E84848700508080600006890AD
:102830000088C8A89888050808060000402070880D
:10284000888888700508080600001020708888882D
:10285000887005080806000020500070888888707D
:1028600005080806000068900070888888700508D0
:1028700008060000500070888888887005050506E5
:10288000000188502050880508080600FF1070A835
:10289000A8A8A8704005080806000040208888887D
:1028A00088887005080806000010208888888888B5
:1028B0007005080806000020500088888888700588
:1028C0000808060000500088888888887005080875
:1028D000060000102088502020202005090906004D
:1028E000FFC040704848704040E00408080601FFFF
:1028F000609090A09090E0800508080600004020BD
:10290000007008788878050808060000102000701C
:1029100008788878050808060000205000700878BC
:1029200088780508080600006890007008788878A4
:102930000507070600005000700878887805080829
:1029400006000020502070087888780506060600EA
:1029500000D02878A0A8500506060600FF708088E1
:102960007020600508080600004020007088F8808C
:10297000700508080600001020007088F8807005B7
:1029800008080600002050007088F88070050707CE
:1029900006000050007088F88070030808060100E7
:1029A00080400040C04040E003080806010020408D
:1029B0000040C04040E003080806010040A000407D
:1029C000C04040E0030707060100A00040C04040AF
:1029D000E0050707060000A040A0107888700508F1
:1029E00008060000689000B0C888888805080806B6
:1029F00000004020007088888870050808060000E4
:102A00001020007088888870050808060000205093
:102A100000708888887005080806000068900070BB
:102A2000888888700507070600005000708888882D
:102A3000700505050600012000F8002005070706BF
:102A400000FF1070A8A8A870400508080600004004
:102A50002000888888986805080806000010200073
:102A60008888889868050808060000205000888833
:102A700088986805070706000050008888889868CD
:102A80000509090600FF102000888888F8087004EE
:102A900007070601FFC04060506040E005080806D7
:102AA00000FF5000888888780870466C6F77004671
:102AB0006C6F7700466C6F770046616E20737065AF
:102AC00065640046616E2073706565640046616EE2
:102AD000207370656564004265640042656400426D
:102AE0006564004E6F7A7A6C65004E6F7A7A6C6519
:102AF000004E6F7A7A6C65005370656564005370A0
:102B0000656564005370656564004D61696E0050D1
:102B100072656865617420504C4120456E640050B8
:102B200072656865617420504C41204265640050B4
:102B300072656865617420504C4100507265706127
:102B4000726500507265686561742041425320458A
:102B50006E64005072656865617420414253204282
:102B6000656400507265686561742041425300508D
:102B70007265706172650047323800507265686531
:102B8000617420504C4100436F6F6C646F776E002E
:102B900050726568656174204142530044697361F5
:102BA000626C65207374657070657273004D3834A3
:102BB000004175746F20686F6D65004D6F766520FC
:102BC00061786973004D61696E0020636F6C6420E9
:102BD000657874727573696F6E2070726576656E54
:102BE0007465640A00656E7175657565696E672048
:102BF00022006563686F3A002E0A006F70656E20D0
:102C00006661696C65642C2046696C653A200057E2
:102C1000726974696E6720746F2066696C653A200A
:102C2000005072696E74207061757365640047307E
:102C300020463132303020583020593000004730A3
:102C4000205A2573004D31303920532569004D310C
:102C5000343020532569004D31303620533235351C
:102C6000004D31303920532569004D313930205322
:102C70002569005072696E742061626F72746564B8
:102C80000053746F70207072696E740052657375B2
:102C90006D65207072696E7400506F7765722D4C8F
:102CA0006F7373205265636F76657279203F004EB3
:102CB0006F2054462063617264004368616E6765EB
:102CC0002054462063617264004D323100507269B5
:102CD0006E742066726F6D2054460053746F7020BE
:102CE0007072696E7400526573756D6520707269DB
:102CF0006E74004D323100506175736520707269D9
:102D00006E740053746F70207072696E7400526537
:102D100073756D65207072696E7400496E69742EEA
:102D200020544620636172640050617573652070A1
:102D300072696E7400436F6E74726F6C00507265CE
:102D4000706172650054756E6500496E666F207320
:102D5000637265656E004572726F72207772697476
:102D6000696E6720746F20454550524F4D210A000F
:102D70002E0A0046696C652862696E292064656CBC
:102D8000657465640044656C6574696F6E2862697A
:102D90006E29206661696C65640056547261762004
:102DA0006D696E005654726176206D696E005654DE
:102DB000726176206D696E00566D696E00566D69A0
:102DC0006E00566D696E00566D6178204500566D37
:102DD0006178204500566D6178204500566D617818
:102DE000205A00566D6178205A00566D6178205A3D
:102DF00000566D6178205900566D61782059005653
:102E00006D6178205900566D6178205800566D61CB
:102E100078205800566D61782058004D6F74696FA6
:102E20006E00416D6178204500416D61782045005C
:102E3000416D6178205A00416D6178205A00416DE2
:102E40006178205900416D6178205900416D6178A9
:102E5000205800416D6178205800412D74726176D0
:102E6000656C00412D74726176656C00412D726550
:102E7000747261637400412D7265747261637400D1
:102E8000416363656C00416363656C004D6F7469F9
:102E90006F6E00526573656E643A20006F6B00625E
:102EA0007573793A2070617573656420666F72205E
:102EB000696E7075740A00627573793A2070617575
:102EC00073656420666F7220757365720A0062759F
:102ED00073793A2070726F63657373696E670A0065
:102EE0004B494C4C45442E20004B494C4C206361CF
:102EF0007573656420627920746F6F206D756368E7
:102F000020696E6163746976652074696D65202D32
:102F10002063757272656E7420636F6D6D616E648F
:102F20003A20000075C48DC311241FBECFEFD0E43A
:102F3000DEBFCDBF13E0A0E0B1E0E2E9FEEA01E0D0
:102F40000BBF02C007900D92AE38B107D9F729E147
:102F5000AEE8B3E001C01D92A733B207E1F717E175
:102F6000C3E9D7E104C02197FE010E94ACD6C23963
:102F7000D107C9F70E94C9BE0C943CD70C9400003D
:102F80002F923F924F925F926F927F928F929F9279
:102F9000AF92BF92CF92DF92EF92FF920F931F9367
:102FA000CF93DF93CDB7DEB7EA970FB6F894DEBFC5
:102FB0000FBECDBF0091570D20E6029F8001112466
:102FC0000952144F8091A51180FF1AC0E2EFFBE275
:102FD00084917F013FEFE31AF30A811102C0780167
:102FE00004C00E946A2FF701F3CFD7018D917D01B4
:102FF000882319F00E946A2FF8CF8AE00E946A2F76
:1030000081E090E090931D1980931C191092B503F4
:103010001092B4038FE38093BD031092BC0310920F
:10302000BB0384E0E8EAF3E0DF011D928A95E9F74B
:10303000F80180810F5F1F4F8032D1F38E34C9F4C5
:10304000818190ED980F9A3020F08D3211F08B3203
:1030500081F4DF0112969D012F5F3F4F8C918053C9
:103060008A3010F4D901F7CFFD01119680818032AA
:10307000D9F3F0932419E09323197F01BFEFEB1AE2
:10308000FB0A10816AE270E0C7010E9404D7009732
:1030900031F0FC01319780818032E1F311821D34DF
:1030A00031F1143521F1173411F1E2EFFBE2849193
:1030B0008F010F5F1F4F882321F00E946A2FF801B4
:1030C000F6CF609123197091241984E697E00E944D
:1030D000C14F82E20E946A2F8AE00E946A2F1092FA
:1030E0001D1910921C190E94ACBD0C94062DC7012D
:1030F000FC01208101962032D9F320532A30A8F612
:103100001093BD0380E090E06AE03196DF011197F3
:103110002C91022E000C330B20533109689FA00123
:10312000699F500D1124C901840F951F20812053E0
:103130002A3058F39093BC038093BB03DF01319690
:103140002C912032D9F31D34A9F48E319105D1F0A0
:103150003CF487319105B1F08C31910559F412C0DE
:10316000853791053CF08737910564F0803AE3E0BC
:103170009E0741F00091231960E070E0EE24E39493
:10318000F12C43C0B093B503A093B4037FC02132A8
:1031900009F445C03FEBB32EB20E49E1A42EAB14A7
:1031A00008F45FC0AF01FA0130814F5F5F4F3032EA
:1031B000D1F340ED430F4A3008F047C0AF018B2CEC
:1031C000912C6401A3E0D594C794AA95E1F79601E8
:1031D00028553C4F69012B2D2770D70102C0AA0F3B
:1031E000BB1F2A95E2F79D01D6013C91232B2C931E
:1031F00041155105A1F1401BD401A257BC4F4C937E
:10320000208121542A3190F5DF01FD0131962C9166
:103210002111BDCF7093B5036093B40337C01D3443
:1032200009F0B8CF8032910509F0B4CFF093B5031F
:10323000E093B40363E270E0CF010E9404D70097EB
:1032400009F4DAC3DC011C9221C043ED430F423084
:1032500008F4B4CF3B3211F00C94102AAFCF40E009
:10326000CBCF6115710561F6BD01CACFDF01AD019C
:103270004F5F5F4F2C9120532A3010F4DA01F7CFC3
:10328000FD01119620812032D9F3BECF8091BD037C
:103290008D3409F4B1C3843511F40C94CF298734EB
:1032A00009F003CF8091BB039091BC038C31910551
:1032B00009F421C24CF497FD12CF823091059CF0A5
:1032C000049709F4D4C10BCF8B35910509F422C3BF
:1032D0008C35910509F422C38A35910509F0FFCE9A
:1032E0001092BA03FCCE80911F01882309F4F7CE17
:1032F00054E9C52E51E0D52E6CE6E62E61E1F62E9E
:103300000AEA1BE076EBA72E73E0B72EF601819157
:103310006F010E941D2F8823E1F00E94EA2ED50143
:103320002C91211104C02091BA03222331F0F8011D
:10333000208131814281538103C020E030E0A90126
:103340000E947CD4D7016D937D938D939C931397AA
:103350000AC0F80180819181A281B381F701808345
:103360009183A283B383F4E0EF0EF11C0C5F1F4F37
:103370002FEFA21AB20A38E9C31631E0D30631F6AC
:1033800086E40E944C2F8823C9F00E94EA2E20E098
:1033900030E0A9010E94FFD5181684F40E94EA2E9D
:1033A00020E030E040E752E40E94FFD460931B012C
:1033B00070931C0180931D0190931E018091280140
:1033C000882309F4AEC0C0908D11D0908E11E0908A
:1033D0008F11F0909011A701960160916C1170917E
:1033E0006D1180916E1190916F110E94C2CD87FF77
:1033F00008C0C0926C11D0926D11E0926E11F092E3
:103400006F11C0909111D0909211E0909311F090B3
:103410009411A701960160917011709171118091C2
:103420007211909173110E94C2CD87FF08C0C092A3
:103430007011D0927111E0927211F0927311C090DC
:103440009511D0909611E0909711F0909811A701E6
:10345000960160917411709175118091761190911F
:1034600077110E94C2CD87FF08C0C0927411D0921C
:103470007511E0927611F092771120E030E048EC7F
:1034800053E460916C1170916D1180916E11909167
:103490006F110E94FFD5181664F480E090E0A8EC4C
:1034A000B3E480936C1190936D11A0936E11B0935F
:1034B0006F1120E030E048EC53E46091701170919E
:1034C000711180917211909173110E94FFD518169D
:1034D00064F480E090E0A8ECB3E4809370119093E2
:1034E0007111A0937211B093731120E030E04BE69C
:1034F00053E46091741170917511809176119091DF
:1035000077110E94FFD5181664F480E090E0ABE6D6
:10351000B3E48093741190937511A0937611B093D6
:1035200077110E945F2F8091A51183FD3BC0C09051
:103530007811D0907911E0907A11F0907B11209160
:10354000B60B3091B70B4091B80B5091B90BC70136
:10355000B6010E94C2CD882329F10E944C508823D5
:1035600009F1C092B60BD092B70BE092B80BF09273
:10357000B90BE2EFFBE284918F010F5F1F4F8111C6
:1035800003C0E7E7F2E004C00E946A2FF801F3CF1E
:1035900084918F010F5F1F4F882321F00E946A2FB3
:1035A000F801F6CF20916C1130916D1140916E11A0
:1035B00050916F116091AA0B7091AB0B8091AC0B85
:1035C0009091AD0B0E94C2CD81111FC0209170114E
:1035D0003091711140917211509173116091AE0B45
:1035E0007091AF0B8091B00B9091B10B0E94C2CD46
:1035F00081110BC0E0901B01F0901C0100911D0196
:1036000010911E01C090AD031EC060912601709103
:103610002701072E000C880B990B0E94C9CD209121
:103620001B0130911C0140911D0150911E010E940F
:1036300028CE2AE037ED43E25CE30E9428CEC0901A
:10364000AD037B018C0128E731E144E751E160E7FC
:1036500071E18CE691E10E94F88980E1ECE6F1E10C
:10366000AAEABBE001900D928A95E1F738CD80E59A
:103670000E944C2F882329F00E94A62E6B017C010A
:1036800003C0C12CD12C760183E50E944C2F8823E6
:1036900061F00E94EA2E20E030E04AE754E40E9404
:1036A00028CE0E9478D56B017C010E94D462809163
:1036B0003701811105C060E082E992E00E94D88262
:1036C0000E945F2F8091A30B9091A40BA091A50B5A
:1036D000B091A60BC80ED91EEA1EFB1E0E94857D66
:1036E000DC01CB018C199D09AE09BF09B7FFF7CCEE
:1036F0000E9442BBF3CF0E94D46280911B01909143
:103700001C01A0911D01B0911E018093B003909304
:10371000B103A093B203B093B303809126019091BB
:1037200027019093AF038093AE0384E690E09093DB
:103730002701809326010E945F2F11E010939B0BBD
:1037400088E50E941D2FC82E89E50E941D2F082F95
:103750008AE50E941D2FD82EC11004C0011104C09B
:10376000182705C0011102C010E001C0182F80E128
:10377000EAEAFBE0ACE6B1E101900D928A95E1F74F
:10378000111105C0C11003C0002309F497C0812C9A
:10379000912C40EAA42E40E4B42E809274119092B1
:1037A0007511A0927611B0927711A50194016091E4
:1037B000B20B7091B30B8091B40B9091B50B0E943A
:1037C000C2CD87FF68C040901B0150901C016090E3
:1037D0001D0170901E0132E4E32E30E2F32EF7015A
:1037E00085919591A591B49180931B0190931C01B3
:1037F000A0931D01B0931E018092B20B9092B30B67
:10380000A092B40BB092B50B0E94502D80E090E0D6
:10381000A8E4B2E480931B0190931C01A0931D01C6
:10382000B0931E010E94502D8090741190907511DC
:10383000A0907611B0907711A50194016091B20B20
:103840007091B30B8091B40B9091B50B0E94FFD592
:103850001816BCF4F70185919591A591B4918093C8
:103860001B0190931C01A0931D01B0931E01809237
:10387000B20B9092B30BA092B40BB092B50B0E9416
:10388000502D0E94D46240921B0150921C01609204
:103890001D0170921E01111105C0C11003C001115C
:1038A00007C00CC080E090E00E942B781123B9F390
:1038B00081E090E00E942B78111102C0DD2021F000
:1038C00082E090E00E942B780E94E52D8091090E05
:1038D00080939B0B8091B0039091B103A091B203B0
:1038E000B091B30380931B0190931C01A0931D0121
:1038F000B0931E018091AE039091AF039093270186
:10390000809326010E945F2F83E0809300010E9434
:10391000EC33E5CB81E08093BA03E1CB85E40E94F0
:103920004C2FD82E811102C00E94D46294E9A92E96
:1039300091E0B92E2AEAE22E2BE0F22E00E010E010
:10394000CC24C394D5018D915D010E944C2F882316
:1039500071F00E94EA2EF701608371838283938362
:10396000133029F0123011F4C0929E0B01E01F5F5A
:10397000F4E0EF0EF11C143029F7002319F00E9437
:10398000E52D37C0DD20A9F1C090B60BD090B70B64
:10399000E090B80BF090B90B2091750D3091760D39
:1039A0004091770D5091780DC701B6010E9428CE45
:1039B0000E9404D660932B1270932C1280932D12C8
:1039C00090932E12C701B6010E9471D52FB7F894BB
:1039D0006093970D7093980D8093990D90939A0D25
:1039E0002FBF10921B1210921C1210921D121092D7
:1039F0001E120E94EC3373CB8091BB039091BC03E9
:103A00008F36910509F437C50CF09EC08A329105B6
:103A100009F49BC40CF04EC08731910509F434C2FF
:103A200024F58231910509F4B9C69CF497FD57CB72
:103A3000823091050CF459C1419709F050CB60E0F8
:103A400085ED92E00E94D8825E985E9815985E9807
:103A500046CB8531910509F40DC20CF010C2449794
:103A600009F03DCBEDEEF2E0C6C18B31910509F4D2
:103A70004AC23CF48931910509F424C20CF416C2FF
:103A800026C28E31910509F479C264F44C9709F08D
:103A900026CB40E060E08091B4039091B5030E9492
:103AA0006A3F1DCB8F31910509F499C3809709F4C2
:103AB0004CC315CB8535910509F4A7C6ECF48135C7
:103AC000910509F449C67CF48C34910509F47DC450
:103AD0008D34910509F47DC48B34910509F0FFCA3A
:103AE0000E94F8B4FCCA8335910509F452C60CF063
:103AF00055C61092B903F3CA8A36910509F4FBC57D
:103B0000A4F48836910509F468C40CF07AC58C35A4
:103B1000910509F0E4CAB4E9CB2EB1E0DB2E19E639
:103B2000E12E1DE0F12E10E08BC68C36910509F4D4
:103B300015C50CF4FFC58D36910509F4A8C58E3660
:103B4000910509F485C4CBCA8C3C910511F40C9401
:103B5000DA260CF05AC08837910511F40C94CD2563
:103B60000CF58337910509F4BDC054F481379105F4
:103B700009F4FCC40CF0E4C684ED93E00E94F27BEF
:103B80008637910509F471C70CF0A9C085379105F6
:103B900009F0A5CA60E08091B4039091B5030E943A
:103BA000F6829DCA8B39910509F448C594F48C3886
:103BB000910509F408C58139910511F40C94D425B7
:103BC0008937910509F08BCA10929B0B1092090E50
:103BD00086CA883C910511F40C944F262CF48E3B38
:103BE000910509F46EC57BCA893C910511F40C94CA
:103BF000A3268B3C910509F072CA94E9E92E91E065
:103C0000F92E08E618E10C94CB26833621E09207C2
:103C100009F45DC07CF58D3D910511F40C944828A4
:103C20007CF4833D910509F456C08C3D910511F457
:103C30000C9439288D3C910509F051CA0C94462703
:103C40008D3241E0940711F40C94932834F4823EB1
:103C5000910511F40C94642842CA8E32A1E09A07AF
:103C600011F40C9432298F32914009F038CA0E9425
:103C70005B3535CA853FE1E09E0711F40C948D2930
:103C800094F48A3921E0920709F46CC4843F31E04E
:103C9000930711F40C9489298039914009F01FCAC7
:103CA0000E94D4621CCA873F51E0950711F40C941E
:103CB000952914F40C949129803AB3E09B0709F4F8
:103CC00081C2873E934011F40C94BB2908CAE8E8EE
:103CD000FBE00C94A729E2EFFBE20C94B327E1EFA1
:103CE000F5E0FDC6E1E1F5E034C6A090B403B09084
:103CF000B50380E50E944C2F882359F00E94A62E20
:103D00006B017C0111E0672B682B692B31F410E00B
:103D100004C010E0C12CD12C760183E50E944C2F09
:103D20008823F1F00E94EA2E20E030E04AE754E4D4
:103D30000E9428CE0E9478D56B017C01111112C01F
:103D4000672B682B692B71F4A114B10459F0D501CC
:103D50008C91882339F061E0C5010E94F68207C08A
:103D6000112391F360E082EC92E00E94D88283E01C
:103D700090E090931D1980931C1981E08093BB11F2
:103D80000E94D4620E945F2FC114D104E104F104A7
:103D9000E1F08091A30B9091A40BA091A50BB091A1
:103DA000A60BC80ED91EEA1EFB1E0E94857DDC01F3
:103DB000CB018C199D09AE09BF09B7FF19C08091CD
:103DC000BB1181110C941A2A13C08091BB11882356
:103DD00019F00E9442BBF9CF8091411260E0882324
:103DE00019F083EB92E002C08BE992E00E94D88246
:103DF0001092BB1174C984918F010F5F1F4F8823EC
:103E000021F00E946A2FF801F6CF1092E61410926A
:103E1000E51482E792E10E94F1728BE1E2E7F2E1C0
:103E2000DE01159601900D928A95E1F7809170124E
:103E3000909171129C838B838CE991E09A838983A2
:103E400040E050E0BE016F5F7F4F8CE293E00E9444
:103E50005F3DCE0101960E94FE78EEEDF2E0849186
:103E60008F010F5F1F4F882309F439C90E946A2F01
:103E7000F801F5CF0E94C43B0E94067930C9109228
:103E80004112109242122BC98091B4039091B50354
:103E9000FC012081222329F0203209F4108231967E
:103EA000F8CF40E061E00E946A3F19C90E9438B52E
:103EB00080914212882319F081E0809341120E9480
:103EC000F8B40DC9109241120E9467B508C98091DB
:103ED0004212882309F403C983E50E944C2F8823EA
:103EE00009F4FDC80E94B62EAB01BC014093DC145E
:103EF0005093DD146093DE147093DF148CE094E132
:103F00000E9459AFECC880914212811103C0E0E1D8
:103F1000F3E029C0EEEFF2E084918F010F5F1F4FB5
:103F2000882321F00E946A2FF801F6CF6091DC14FB
:103F30007091DD148091DE149091DF144AE00E94AC
:103F4000712F8FE20E946A2F6091D8147091D9145A
:103F50008091DA149091DB144AE00E94712F8AE07C
:103F60000E946A2FBCC884918F010F5F1F4F882366
:103F700009F4B5C80E946A2FF801F5CF809142126A
:103F8000882309F4ACC88CE094E10E9426AF8CE051
:103F900094E10E9493711092401210923F12E090AF
:103FA000B403F090B50380914212882309F497C8B6
:103FB0001092411280910F14882321F08CE094E13B
:103FC0000E949371FE0131966F01CF010E94C6AC31
:103FD0008EE692E190938E1280938D12D7018C9190
:103FE0008F3209F060C06FE270E0C7010E9404D711
:103FF0008C010F5F1F4F09F45CC06FE270E0C801D5
:104000000E9404D75C01009709F454C008171907EF
:1040100008F050C04C01801A910AA401B801CE01E9
:1040200080960E942DD7E0E2F0E0EC0FFD1FE80D36
:10403000F91D10828E01005E1F4FF80181918F01E2
:10404000882319F00E946A2FF8CF8AE00E946A2F15
:1040500060918D1270918E126115710511F06C5F77
:104060007F4F21E0AE01405E5F4FCE0105960E947A
:104070004277811112C0BE01605E7F4F87E493E0FA
:104080000E94C14F8EE20E946A2F8AE00E946A2F2E
:10409000C6010E94FE780C946F18D0928E12C092C6
:1040A0008D128501A6CF8FE892E190938E128093B6
:1040B0008D12870180918D1290918E12009709F0D8
:1040C0000496B8010E9484B1811103C0EFE2F3E0CD
:1040D00021C0E1E2F3E084917F012FEFE21AF20ABE
:1040E000882321F00E946A2FF701F5CFD8018D9126
:1040F0008D01882319F00E946A2FF8CF8AE00E9470
:104100006A2F1092DC141092DD141092DE141092BB
:10411000DF1416C084917F01BFEFEB1AFB0A8823DE
:1041200021F00E946A2FF701F5CFF80181918F01EC
:10413000882319F00E946A2FF8CF8EE20E946A2F1E
:10414000C6010E94FE780C946F1880914112811173
:104150000E94D462E090B403F090B50380E50E9421
:104160001D2F182F882319F00E94DA2E182F809106
:104170004212882311F40C946F18412F61E0C7019B
:104180000E946A3F83E50E944C2F882381F00E94A1
:10419000B62EAB01BC014093DC145093DD14609348
:1041A000DE147093DF148CE094E10E9459AF80918B
:1041B0004212882319F081E08093411211110C946E
:1041C0006F187DCE8091B4039091B50321E02093C8
:1041D000401240E060E00E946A3F0C946F180E9419
:1041E0000E3D7B018C0120E831E541E050E00E946A
:1041F00018D4C9016DE671E00E9484D64B015C01C0
:10420000C801B70120E13EE040E050E00E9418D430
:10421000CA01B90128E130E040E050E00E9418D422
:10422000762E672EC62ED72E8CE3282E312C412CCD
:10423000512CC801B701A20191010E9418D4F62E99
:10424000E72ECA01B901A20191010E9418D4CB0145
:104250008E010F5F1F4F8114910499F0EF92FF922E
:104260007F936F936F927F92BF92AF929F928F9244
:1042700083E893E09F938F931F930F930E945ACDEF
:1042800013C0A114B104B1F0EF92FF927F936F932A
:104290006F927F92BF92AF9283E793E09F938F9349
:1042A0001F930F930E945ACD0FB6F894DEBF0FBE36
:1042B000CDBF30C0CD2879F0EF92FF927F936F93FE
:1042C0006F927F9287E693E09F938F931F930F9354
:1042D0000E945ACDE9CF892B69F0EF92FF927F932C
:1042E0006F938FE593E09F938F931F930F930E949B
:1042F0005ACDDACFEF92FF928BE593E09F938F93A5
:104300001F930F930E945ACD0F900F900F900F9014
:104310000F900F9060E0C8010E94F682E2EFFBE28E
:1043200084917F01BFEFEB1AFB0A882321F00E94E2
:104330006A2FF701F5CFB80187E993E00E94C14FDA
:104340008AE00E946A2F0C946F1883E50E944C2F1C
:10435000882311F40C946F180E94C62EE82E80E575
:104360000E944C2F882311F40C946F180E94B62ED3
:10437000162FC62ED72ED7FE02C00C946F18E7EE6C
:10438000F6E08491181303C0E8E8FBE00AC0319618
:1043900027E0EF30F207A9F70C941E2A0E946A2F3B
:1043A000F80184918F010F5F1F4F8111F7CFE4EA6D
:1043B000F3E084918F010F5F1F4F882311F40C9459
:1043C0006F180E946A2FF801F4CF0E9467B50C9411
:1043D0006F180E949E9E0C946F1888E690E00E94D1
:1043E000DE2F81110C946F188091A51183FF02C0FC
:1043F0000C946F1883E50E944C2F882329F10E94AA
:10440000EA2E0E9471D5CB010E947D820E94EA2E85
:10441000209148063091490640914A0650914B063A
:104420000E94FFD5181684F483E192E09F938F9346
:1044300083EB93E09F938F931F920E94443D0F90D4
:104440000F900F900F900F900E9499BE0C946F18D0
:104450008EE40E944C2F882311F40C946F180E9454
:10446000B62E609318197093191980931A199093A6
:104470001B190C946F1883E50E941D2F882359F097
:1044800083E50E944C2F882319F00E94C62E01C09C
:1044900080E08093A511E2EFFBE284918F010F5F32
:1044A0001F4F811103C0EDECF3E004C00E946A2F9E
:1044B000F801F3CF84918F010F5F1F4F882321F004
:1044C0000E946A2FF801F6CF8091A511811103C0D7
:1044D000E9ECF3E034C00FEBC02E03E0D02EE12C6A
:1044E000F12C20E08091A51190E00E2C02C0959552
:1044F00087950A94E2F780FF17C0BB24B394B20EED
:10450000222319F08CE20E946A2FF6018591949182
:10451000FC0184918F010F5F1F4F882321F00E94BF
:104520006A2FF801F6CF2B2D3FEFE31AF30A42E092
:10453000C40ED11C55E0E516F104A1F60AC0849121
:104540008F010F5F1F4F882321F00E946A2FF8010F
:10455000F6CF8AE00E946A2F0C946F1810927A01AD
:104560000C946F180E94EF2D0C946F1883E50E9435
:104570004C2F811103C0E2EFFBE20DC00E94C62E5A
:1045800080938B018D3310F40C946F188CE380931F
:104590008B010C946F1884918F010F5F1F4F88233C
:1045A00021F00E946A2FF801F6CF40918B0150E074
:1045B00060E070E08DED93E00E946E4F8AE00E9413
:1045C0006A2F0C946F188091A51183FF02C00C9480
:1045D0006F1883E50E944C2F882311F40C946F18F8
:1045E0000E94EA2E0E9471D56E37710514F06DE7B6
:1045F00070E070931215609311150E94D95B0C94B2
:104600006F1889E690E00E94DE2F811111C0E4EE60
:10461000F3E084918F010F5F1F4F882321F00E94E8
:104620006A2FF801F6CF0E94D6348AE00E946A2FE2
:1046300010921D1910921C190C94062D83E50E94EE
:104640004C2F882311F40C946F180E94C62E80936F
:1046500022198D3318F08CE3809322190E94857DF6
:104660006B017C012091221930E0A8EEB3E00E949A
:104670006CD4C60ED71EE81EF91EC0921E19D09229
:104680001F19E0922019F09221190C946F188DE6F1
:1046900090E00E94DE2F81110C946F188091A5117B
:1046A00083FF02C00C946F1883E50E944C2F8AABE5
:1046B0008111DDC682E50E944C2F8111D8C60C9471
:1046C0006F188091A51183FF02C00C946F1860E0F1
:1046D00083E194E00E94D88283E50E944C2F8AAB4C
:1046E00081110C948D2B82E50E944C2F81110C942A
:1046F0008D2B0C946F1883E50E944C2F882339F082
:104700000E94B62E8B016F3F710519F010F00FEF6C
:1047100010E080E50E944C2F811106C01093141503
:10472000009313150C946F180E94C62E81110C94DF
:104730006F18F4CF80E50E944C2F811106C01092B3
:104740001415109213150C946F180E94B62E672B37
:1047500011F00C946F18F3CF0E94255C0E94D46274
:104760000E94A2BD10921415109213150E9438B524
:104770001092BD111092BC1168EE73E080E090E0E1
:104780000E940D8260E080E294E00E94D8820C9446
:104790006F1881E08093B9030C946F1883E50E9431
:1047A0004C2F8823A1F00E94EA2E20E030E04AE757
:1047B00054E40E9428CE0E9478D560938C017093B7
:1047C0008D0180938E0190938F010C946F1888E572
:1047D0000E941D2F81110C94C02C89E50E941D2F71
:1047E00081110C94C02C8AE50E941D2F81110C941C
:1047F000C02C85E40E941D2F81110C94C02C0E94B6
:10480000D4620E94A2BD0C946F1883E50E941D2FF4
:10481000882311F40C946F180E94EA2E20E030E0F7
:104820004AE754E40E9428CE0E9478D56093251967
:104830007093261980932719909328190C946F1858
:10484000D6018D916D010E941D2F882309F46DC042
:10485000133009F063C00E94EA2E4B015C0120E096
:1048600030E040EA51E40E94C2CD87FF4EC0A5016E
:1048700094016091750D7091760D8091770D9091F6
:10488000780D0E94FFD42B013C019B01AC0160918B
:10489000650D7091660D8091670D9091680D0E9475
:1048A00028CE6093650D7093660D8093670D90938D
:1048B000680DA30192016091741870917518809130
:1048C0007618909177180E9428CE60937418709390
:1048D0007518809376189093771860919B06709165
:1048E0009C0680919D0690919E060E94C7CDA301D3
:1048F00092010E9428CE0E9478D560939B06709307
:104900009C0680939D0690939E068092750D9092D2
:10491000760DA092770DB092780D07C00E94EA2E16
:10492000F70160837183828393831F5FF4E0EF0E4E
:10493000F11C143009F084CF0E948A510C946F1836
:104940000E94D4620E94EC330C946F180E946A2F6C
:10495000F80184918F010F5F1F4F8111F7CFE3E0C2
:10496000F5E003C00E946A2FF80184918F010F5F68
:104970001F4F8111F7CFECEEF4E003C00E946A2FC5
:10498000F80184918F010F5F1F4F8111F7CFECED7C
:10499000F4E003C00E946A2FF80184918F010F5F39
:1049A0001F4F8111F7CFEBECF4E003C00E946A2F98
:1049B000F80184918F010F5F1F4F8111F7CFEAEB50
:1049C000F4E003C00E946A2FF80184918F010F5F09
:1049D0001F4F8111F7CFEBEAF4E003C00E946A2F6A
:1049E000F80184918F010F5F1F4F8111F7CFE6E926
:1049F000F4E003C00E946A2FF80184918F010F5FD9
:104A00001F4F8111F7CFE0E8F4E003C00E946A2F46
:104A1000F80184918F010F5F1F4F8111F7CFEBE6F3
:104A2000F4E003C00E946A2FF80184918F010F5FA8
:104A30001F4F8111F7CFEEE4F4E003C00E946A2F0C
:104A4000F80184918F010F5F1F4F8111F7CFE6E3CB
:104A5000F4E084918F010F5F1F4F882311F40C94B1
:104A60006F180E946A2FF801F4CF85E40E941D2F71
:104A7000882381F00E94DA2E882361F0E2EFFBE2C6
:104A800084918F010F5F1F4F882321F00E946A2FAE
:104A9000F801F6CF81E40E941D2F882381F00E9447
:104AA000DA2E882361F0E5EDF5E084918F010F5F48
:104AB0001F4F882321F00E946A2FF801F6CF009142
:104AC000B4031091B503D8018D918D01882309F4A9
:104AD00040CD0E946A2FF7CF0E946A2FF80184917F
:104AE0008F010F5F1F4F8111F7CFE9EEF5E0849141
:104AF0008F010F5F1F4F882321F00E946A2FF8015A
:104B0000F6CF329B03C005E012E002C000E012E0E5
:104B1000F80181918F01882319F00E946A2FF8CF44
:104B20008AE00E946A2FE1EEF5E084918F010F5F29
:104B30001F4F882321F00E946A2FF801F6CF339B84
:104B400003C005E012E002C000E012E0D8018D9140
:104B50008D01882319F00E946A2FF8CF8AE00E9405
:104B60006A2FE9EDF5E084918F010F5F1F4F8823D5
:104B700021F00E946A2FF801F6CF349B03C005E0B4
:104B800012E002C000E012E0F80181918F01882359
:104B900009F4DFCC0E946A2FF7CF81E080939B0B52
:104BA0008093090E0C946F1883E50E944C2F882384
:104BB00019F00E94B62E02C060E070E08B01112750
:104BC00002301105DCF0E8E8FBE084918F010F5F13
:104BD0001F4F811103C0EBE0F6E004C00E946A2F72
:104BE000F801F3CF84918F010F5F1F4F882311F4D9
:104BF0000C946F180E946A2FF801F4CF88E40E9489
:104C00004C2F8823A9F00E94B62E6A3A71053CF019
:104C10006530F1E07F072CF064E071E002C06AEAE1
:104C200070E0F801EE0FFF1FE650F24F71836083D2
:104C300086E40E944C2F8823A9F00E94B62EF8012A
:104C4000EE0FFF1FE250F24F718360836F3F7105DB
:104C500019F014F06FEF70E077FF02C060E070E0D1
:104C60007183608382E40E944C2F882311F40C949A
:104C70006F180E94B62E6530710534F06F367105DD
:104C80002CF06EE670E002C065E070E0000F111FCE
:104C9000F801EA50F24F718360830C946F1888EC2E
:104CA00090E00E94DE2F81110C946F1884E40E9422
:104CB0001D2F882309F443C00E94EA2E6B017C015A
:104CC00011E020E030E0A9010E94C2CD811101C0B5
:104CD00010E010937D0D20E030E0A901C701B6017E
:104CE0000E94C2CD882359F10091AC0310E00E94CC
:104CF000EA2E000F111F000F111FF801E758F24FA5
:104D0000608371838283938320E030E0A901609106
:104D1000790D70917A0D80917B0D90917C0D0E94A0
:104D2000C2CD81110CC080E090E0A0EEBFE3809383
:104D3000790D90937A0DA0937B0DB0937C0D0E941A
:104D4000FDBA0C946F1824E9E22E21E0F22E08E758
:104D500018E1D7018D917D010E941D2F882349F014
:104D60000E94EA2E0E9478D5F801608371838283C5
:104D700093830C5F1F4FF8E108381F0751F70E941B
:104D80006C500C946F180C5F1F4FF8E108371F0729
:104D900011F40C946F18D7018D917D010E941D2F85
:104DA000882389F30E94EA2EF8016083718382834D
:104DB0009383E9CF83E50E941D2F8823D9F00E94B9
:104DC000EA2EAB01BC014093901850939118609368
:104DD0009218709393184093881850938918609391
:104DE0008A1870938B1887E896E00E948B4F8AE0B0
:104DF0000E946A2F80E50E941D2F882399F00E944F
:104E0000EA2EAB01BC014093901850939118609327
:104E10009218709393188AE696E00E948B4F8AE06E
:104E20000E946A2F82E50E941D2F882399F00E941C
:104E3000EA2EAB01BC0140938C1850938D186093FF
:104E40008E1870938F188BE496E00E948B4F8AE047
:104E50000E946A2F84E50E941D2F882311F40C9470
:104E60006F180E94EA2EAB01BC0140938818509342
:104E7000891860938A1870938B188DE296E00E94CF
:104E80008B4F8AE00E946A2F0C946F1883E50E9472
:104E90001D2F882351F00E94EA2E609364187093AE
:104EA0006518809366189093671884E50E941D2FFB
:104EB000882351F00E94EA2E609360187093611865
:104EC000809362189093631882E40E941D2F8823B8
:104ED00051F00E94A62E60939D1170939E118093B5
:104EE0009F119093A01188E50E941D2F882351F0F7
:104EF0000E94EA2E6093590D70935A0D80935B0DBA
:104F000090935C0D89E50E941D2F882351F00E942B
:104F1000EA2E60935D0D70935E0D80935F0D90930C
:104F2000600D8AE50E941D2F882351F00E94EA2E11
:104F30006093610D7093620D8093630D9093640D87
:104F400085E40E941D2F882311F40C946F180E9491
:104F5000EA2E6093650D7093660D8093670D9093B4
:104F6000680D0C946F1884918F010F5F1F4F882379
:104F700021F00E946A2FF801F6CF83E50E941D2FD1
:104F8000882321F00E94DA2E80932801E7EDF6E0D5
:104F900084918F010F5F1F4F882321F00E946A2F99
:104FA000F801F6CF80912801882319F0EFECF6E0A4
:104FB00002C0E3EDF6E084918F010F5F1F4F811176
:104FC00003C0E7ECF6E004C00E946A2FF801F3CFBB
:104FD00084918F010F5F1F4F882321F00E946A2F59
:104FE000F801F6CF40918D1150918E1160918F1183
:104FF0007091901185EC96E00E948B4F4091911139
:1050000050919211609193117091941182EC96E0FD
:105010000E948B4F4091951150919611609197117C
:10502000709198118FEB96E00E948B4FE7EBF6E0C2
:1050300084918F010F5F1F4F882321F00E946A2FF8
:10504000F801F6CF60E971E085EB96E00E94A84F89
:1050500060E971E082EB96E00E94A84F6BEE70E091
:105060008FEA96E00E94A84F8AE00E946A2F0C9473
:105070006F1883E50E944C2F882311F40C946F184D
:105080000E94B62E70932701609326010C946F182E
:105090008DED90E00E94DE2F81110C946F1883E556
:1050A0000E944C2F882311F40C946F180091AC03CC
:1050B00010E00E94B62E000F111FF801EC5DFE4FAC
:1050C000718360830C946F1880E50E941D2F8823E4
:1050D00011F40C946F180E94B62EF62EC62ED72E01
:1050E00083E50E944C2F882321F00E94B62E8B016D
:1050F00002C00FEF1FEFC8010196039710F00C9448
:105100006F18D7FE02C00C946F18E7EEF6E08FE040
:1051100097E02491F21611F40C946F1831968E17C3
:105120009F07B9F74BC485E40E944C2F811110C032
:1051300080E50E941D2F882391F00E94EA2E609343
:105140009F0D7093A00D8093A10D9093A20D07C0A9
:105150000E94C62E882361F3E8E8FBE072C089E470
:105160000E941D2F882381F00E94EA2E2CEA35EC44
:1051700047E25EE30E9428CE60939B0D70939C0DE6
:1051800080939D0D90939E0D84E40E941D2F882393
:1051900081F00E94EA2E2CEA35EC47E25EE30E94A1
:1051A000FFD46093A30D7093A40D8093A50D9093ED
:1051B000A60DE2EFFBE284918F010F5F1F4F882362
:1051C00021F00E946A2FF801F6CF40919F0D509177
:1051D000A00D6091A10D7091A20D87E197E00E9452
:1051E0008B4F2CEA35EC47E25EE360919B0D7091AA
:1051F0009C0D80919D0D90919E0D0E94FFD4AB015E
:10520000BC0183E197E00E948B4F2CEA35EC47E22A
:105210005EE36091A30D7091A40D8091A50D909116
:10522000A60D0E9428CEAB01BC018FE097E00E9442
:105230008B4F8AE00E946A2F0C946F180E946A2F8D
:10524000F80184918F010F5F1F4F8111F7CF0EE19D
:1052500012E0D8018D918D01882309F47AC90E944A
:105260006A2FF7CF83E50E941D2F182F882371F036
:105270000E94EA2E0E9471D570930F0160930E0177
:1052800021E0672B09F020E020939F0680E50E9433
:105290001D2F882361F020910E0130910F01232BE7
:1052A00011F00E94DA2E80939F060C946F18111152
:1052B0000C946F18E2EFFBE284918F010F5F1F4F98
:1052C000882321F00E946A2FF801F6CF80919F0673
:1052D000882319F062E072E002C06FE072E080E3C0
:1052E00097E00E94C14F60910E0170910F018FE114
:1052F00097E00E94A84FEBE1F7E084918F010F5FE8
:105300001F4F882311F40C946F180E946A2FF80124
:10531000F4CF0E94B5A40C946F180E948BA00C943B
:105320006F180E94EC6C0C946F1883E50E941D2F7F
:10533000882319F00E94DA2E01C081E091E08927CC
:105340000E94E56D0C946F180E946A2FF8018491F9
:105350008F010F5F1F4F8111F7CFE3E4F7E08491D6
:105360008F010F5F1F4F882311F40C946F180E9458
:105370006A2FF801F4CF81E080931F011092370467
:1053800083E50E941D2F811104C00E94CBBD0C94A7
:105390006F180E94DA2E81110C946F18F6CFF090DE
:1053A000BB03FF2021F1E2EFFBE284918F010F5F4D
:1053B0001F4F882321F00E946A2FF801F6CF84E561
:1053C0000E946A2F6F2D70E080E090E04AE00E941A
:1053D000712F80E20E946A2F0EE112E0F8018191A4
:1053E0008F01882309F4B5C80E946A2FF7CF109265
:1053F000AD03E2EFFBE284918F010F5F1F4F882323
:1054000021F00E946A2FF801F6CF60E070E082E59B
:1054100097E00E94A84F8AE00E946A2F0C946F18B0
:105420006115710519F4BF016150710940E050E048
:105430000C94DF180E9442BB0C94D51E61E0812FB2
:105440000E9469526E2D812F0E943A52F12CB701B1
:10545000812F0E94D97CF4E0CF16D10411F00C9476
:105460006F18F0921415E09213150C946F180E94A7
:10547000EA2E0E9471D5CB010E947D826091A80B1B
:105480007091A90B072E000C880B990B0E94C9CDB7
:10549000209148063091490640914A0650914B06AA
:1054A0000E94FFD5181684F483E192E09F938F93B6
:1054B00089EF93E09F938F931F920E94443D0F903A
:1054C0000F900F900F900F900E9499BE81E08093F3
:1054D0007A011EA61FA618AA19AA1BAA1CAA1DAAF1
:1054E0001EAA1DA61FAA8CE388AF9CE199AFA6E473
:1054F000AAAFE12CF12C00E81FEB812C912C540178
:105500006091A80B7091A90B072E000C880B990BCA
:105510000E94C9CD762E672E582E492E9701A801DC
:105520000E94C2CD882371F1C0904806D0904906F0
:10553000E0904A06F0904B06A7019601672D762D64
:10554000852D942D0E94C2CD881F8827881F8DA786
:10555000BAA9BB23E9F0A7019601672D762D852D09
:10556000942D0E94C2CD87FF12C080917A018823BA
:1055700011F40C946F1860E087EE93E00E94D882DB
:105580000C946F187E2C6F2C502E412E01C01DA63E
:105590000E94857D6B017C01DC01CB012BA93CA91C
:1055A0004DA95EA9821B930BA40BB50BB7FD3AC0A6
:1055B000D701C60188519C4FAF4FBF4F8BAB9CABFF
:1055C000ADABBEAB0E94D634E5EFF3E084918F0122
:1055D0000F5F1F4F882321F00E946A2FF801F6CF3A
:1055E00081149104A104B104B9F0D501C401805F14
:1055F000984DAF4FBF4FBC01CD016C197D098E098D
:105600009F0928EE33E040E050E00E9418D4CA0120
:10561000B9010E94203003C08FE30E946A2F8AE004
:105620000E946A2F0E9442BB0E945F2F2090480672
:105630003090490600914A0610914B069101A8014D
:10564000672D762D852D942D0E947BD49F77811414
:105650009104A104B10449F420E030E040E85FE3A4
:105660000E94C2CD87FF0BC008C020E030E040E4BC
:1056700050E40E94FFD5181614F4460157019DA569
:10568000992379F12EA53FA548A959A921153105DE
:105690004105510541F0D701C601821B930BA40BB4
:1056A000B50BB7FD1EC09101A8016FA978AD89ADFA
:1056B0009AAD0E947BD420E030E040EC5FE30E9492
:1056C000C2CD87FD52CFD701C601805A9541AF4F59
:1056D000BF4F8EA79FA7A8ABB9AB2FAA38AE09AF13
:1056E0001AAF80917A01882309F43FCF8114910485
:1056F000A104B10429F4E72CF62C052D142D00CFBC
:1057000090E1C91A97E2D90AE108F108C818D90846
:10571000EA08FB08F7FE29CFEECF0E94EA2E0E948E
:1057200071D56E37710514F06DE770E07093121546
:10573000609311150E94D95B81E080937A0180917A
:10574000AD038093AC031EA61FA618AA19AA1BAA14
:105750001CAA1DAA1EAA1DA61FAA2CE328AF3CE165
:1057600039AF46E44AAFE12CF12C00E81FEB812C65
:10577000912C54016091111570911215072E000C97
:10578000880B990B0E94C9CD762E672E582E492E74
:105790009701A8010E94C2CD882339F120914C06BF
:1057A00030914D0640914E0650914F06AAA9672DA3
:1057B000762D852D942DA11107C00E94C2CD881F82
:1057C0008827881F8DA717C00E94C2CD87FF12C0EF
:1057D00080917A01882311F40C946F1860E085E0C1
:1057E00094E00E94D8820C946F187E2C6F2C502E5F
:1057F000412E01C01DA60E94857D6B017C01DC014C
:10580000CB012BA93CA94DA95EA9821B930BA40B2C
:10581000B50BB7FD3AC0D701C60188519C4FAF4FB9
:10582000BF4F8BAB9CABADABBEAB0E94D634EFE0B1
:10583000F4E084918F010F5F1F4F882321F00E94B5
:105840006A2FF801F6CF81149104A104B104B9F0D4
:10585000D501C401805F984DAF4FBF4FBC01CD0152
:105860006C197D098E099F0928EE33E040E050E075
:105870000E9418D4CA01B9010E94203003C08FE3EE
:105880000E946A2F8AE00E946A2F0E9442BB0E94F7
:105890005F2F20904C0630904D0600914E061091DF
:1058A0004F069101A801672D762D852D942D0E941C
:1058B0007BD49F7781149104A104B10449F420E0C2
:1058C00030E040E85FE30E94C2CD87FF0BC008C014
:1058D00020E030E040E450E40E94FFD5181614F4B4
:1058E000460157019DA5992379F12EA53FA548A909
:1058F00059A9211531054105510541F0D701C601CE
:10590000821B930BA40BB50BB7FD1EC09101A80120
:105910006FA978AD89AD9AAD0E947BD420E030E0CC
:1059200040EC5FE30E94C2CD87FD52CFD701C60194
:10593000805A9541AF4FBF4F8EA79FA7A8ABB9AB79
:105940002FAA38AE09AF1AAF80917A01882309F4E3
:105950003FCF81149104A104B10429F4E72CF62C63
:10596000052D142D07CF90E1C91A97E2D90AE10855
:10597000F108C818D908EA08FB08F7FE29CFEECFCE
:105980000E94D46288E50E941D2F882319F05E9A38
:1059900010929C0B89E50E941D2F882319F05E9AB6
:1059A00010929D0B8AE50E941D2F882311F40C9400
:1059B0006F18159A10929E0B0C946F180E94D46267
:1059C00060E08F2D0E9469520F3F5FEF150759F479
:1059D0008F2D0E94115231E020E0892B09F030E038
:1059E000032F122F05C00130110569F401E010E00A
:1059F0008F2D0E9411528017910711F40C946F188B
:105A00000E9442BBF5CF00E010E0F2CFEA960FB65D
:105A1000F894DEBF0FBECDBFDF91CF911F910F91E4
:105A2000FF90EF90DF90CF90BF90AF909F908F90BE
:105A30007F906F905F904F903F902F90089590913E
:105A4000A70BE92FF0E0E156F44F80839F5F94307D
:105A500018F49093A70B02C01092A70B8091580DD9
:105A60008F5F8093580D0895089580E090E0089529
:105A70008FB7F8949091171920911619921759F031
:105A8000E92FF0E0EA56F74E208130E09F5F9F77E4
:105A90009093171902C02FEF3FEF8FBFC9010895F0
:105AA000CF92EF92FF920F931F93E0901B01F09023
:105AB0001C0100911D0110911E01C090AD0326EB49
:105AC0003BE042EB5BE06EEA7BE08AEA9BE00E940F
:105AD000F8891F910F91FF90EF90CF900895CF9389
